{
  "contractName": "Etherpass",
  "abi": [
    {
      "constant": true,
      "inputs": [
        {
          "name": "",
          "type": "address"
        },
        {
          "name": "",
          "type": "bytes32"
        }
      ],
      "name": "passwords",
      "outputs": [
        {
          "name": "",
          "type": "string"
        }
      ],
      "payable": false,
      "stateMutability": "view",
      "type": "function"
    },
    {
      "constant": true,
      "inputs": [
        {
          "name": "name",
          "type": "bytes32"
        }
      ],
      "name": "getPassword",
      "outputs": [
        {
          "name": "",
          "type": "string"
        }
      ],
      "payable": false,
      "stateMutability": "view",
      "type": "function"
    },
    {
      "constant": false,
      "inputs": [
        {
          "name": "name",
          "type": "bytes32"
        },
        {
          "name": "password",
          "type": "string"
        }
      ],
      "name": "savePassword",
      "outputs": [],
      "payable": false,
      "stateMutability": "nonpayable",
      "type": "function"
    }
  ],
  "bytecode": "0x6060604052341561000f57600080fd5b6105368061001e6000396000f300606060405260043610610057576000357c0100000000000000000000000000000000000000000000000000000000900463ffffffff1680631be7e7731461005c5780638e03c2211461011b578063b4322733146101bb575b600080fd5b341561006757600080fd5b6100a0600480803573ffffffffffffffffffffffffffffffffffffffff1690602001909190803560001916906020019091905050610225565b6040518080602001828103825283818151815260200191508051906020019080838360005b838110156100e05780820151818401526020810190506100c5565b50505050905090810190601f16801561010d5780820380516001836020036101000a031916815260200191505b509250505060405180910390f35b341561012657600080fd5b6101406004808035600019169060200190919050506102e2565b6040518080602001828103825283818151815260200191508051906020019080838360005b83811015610180578082015181840152602081019050610165565b50505050905090810190601f1680156101ad5780820380516001836020036101000a031916815260200191505b509250505060405180910390f35b34156101c657600080fd5b61022360048080356000191690602001909190803590602001908201803590602001908080601f016020809104026020016040519081016040528093929190818152602001838380828437820191505050505050919050506103e1565b005b6000602052816000526040600020602052806000526040600020600091509150508054600181600116156101000203166002900480601f0160208091040260200160405190810160405280929190818152602001828054600181600116156101000203166002900480156102da5780601f106102af576101008083540402835291602001916102da565b820191906000526020600020905b8154815290600101906020018083116102bd57829003601f168201915b505050505081565b6102ea610451565b6000803373ffffffffffffffffffffffffffffffffffffffff1673ffffffffffffffffffffffffffffffffffffffff168152602001908152602001600020600083600019166000191681526020019081526020016000208054600181600116156101000203166002900480601f0160208091040260200160405190810160405280929190818152602001828054600181600116156101000203166002900480156103d55780601f106103aa576101008083540402835291602001916103d5565b820191906000526020600020905b8154815290600101906020018083116103b857829003601f168201915b50505050509050919050565b806000803373ffffffffffffffffffffffffffffffffffffffff1673ffffffffffffffffffffffffffffffffffffffff16815260200190815260200160002060008460001916600019168152602001908152602001600020908051906020019061044c929190610465565b505050565b602060405190810160405280600081525090565b828054600181600116156101000203166002900490600052602060002090601f016020900481019282601f106104a657805160ff19168380011785556104d4565b828001600101855582156104d4579182015b828111156104d35782518255916020019190600101906104b8565b5b5090506104e191906104e5565b5090565b61050791905b808211156105035760008160009055506001016104eb565b5090565b905600a165627a7a7230582057915c6b479f1c06101da076bf43b719c019ded172c3381087bc4eca24770a050029",
  "source": "pragma solidity ^0.4.17;\n\ncontract Etherpass {\n    mapping(address => mapping (bytes32 => string)) public passwords;\n\n    // Save password\n    function savePassword(bytes32 name, string password) public {\n        passwords[msg.sender][name] = password;\n    }\n\n    // Get password\n    function getPassword(bytes32 name) public view returns (string) {\n        return passwords[msg.sender][name];\n    }\n}\n",
  "sourcePath": "etherpass/src/truffle/contracts/Etherpass.sol",
  "compiler": {
    "name": "solc",
    "version": "0.4.18+commit.9cf6e910.Emscripten.clang"
  },
  "schemaVersion": "2.0.0",
  "updatedAt": "2018-05-28T03:16:05.062Z"
}